{
  "_format": "hh-sol-artifact-1",
  "contractName": "DAO",
  "sourceName": "contracts/DAO.sol",
  "abi": [
    {
      "inputs": [
        {
          "internalType": "address",
          "name": "_nftMarketplace",
          "type": "address"
        },
        {
          "internalType": "address",
          "name": "_nftCollection",
          "type": "address"
        }
      ],
      "stateMutability": "payable",
      "type": "constructor"
    },
    {
      "inputs": [
        {
          "internalType": "address",
          "name": "spender",
          "type": "address"
        },
        {
          "internalType": "uint256",
          "name": "allowance",
          "type": "uint256"
        },
        {
          "internalType": "uint256",
          "name": "needed",
          "type": "uint256"
        }
      ],
      "name": "ERC20InsufficientAllowance",
      "type": "error"
    },
    {
      "inputs": [
        {
          "internalType": "address",
          "name": "sender",
          "type": "address"
        },
        {
          "internalType": "uint256",
          "name": "balance",
          "type": "uint256"
        },
        {
          "internalType": "uint256",
          "name": "needed",
          "type": "uint256"
        }
      ],
      "name": "ERC20InsufficientBalance",
      "type": "error"
    },
    {
      "inputs": [
        {
          "internalType": "address",
          "name": "approver",
          "type": "address"
        }
      ],
      "name": "ERC20InvalidApprover",
      "type": "error"
    },
    {
      "inputs": [
        {
          "internalType": "address",
          "name": "receiver",
          "type": "address"
        }
      ],
      "name": "ERC20InvalidReceiver",
      "type": "error"
    },
    {
      "inputs": [
        {
          "internalType": "address",
          "name": "sender",
          "type": "address"
        }
      ],
      "name": "ERC20InvalidSender",
      "type": "error"
    },
    {
      "inputs": [
        {
          "internalType": "address",
          "name": "spender",
          "type": "address"
        }
      ],
      "name": "ERC20InvalidSpender",
      "type": "error"
    },
    {
      "inputs": [
        {
          "internalType": "address",
          "name": "owner",
          "type": "address"
        }
      ],
      "name": "OwnableInvalidOwner",
      "type": "error"
    },
    {
      "inputs": [
        {
          "internalType": "address",
          "name": "account",
          "type": "address"
        }
      ],
      "name": "OwnableUnauthorizedAccount",
      "type": "error"
    },
    {
      "anonymous": false,
      "inputs": [
        {
          "indexed": true,
          "internalType": "address",
          "name": "owner",
          "type": "address"
        },
        {
          "indexed": true,
          "internalType": "address",
          "name": "spender",
          "type": "address"
        },
        {
          "indexed": false,
          "internalType": "uint256",
          "name": "value",
          "type": "uint256"
        }
      ],
      "name": "Approval",
      "type": "event"
    },
    {
      "anonymous": false,
      "inputs": [
        {
          "indexed": true,
          "internalType": "address",
          "name": "previousOwner",
          "type": "address"
        },
        {
          "indexed": true,
          "internalType": "address",
          "name": "newOwner",
          "type": "address"
        }
      ],
      "name": "OwnershipTransferred",
      "type": "event"
    },
    {
      "anonymous": false,
      "inputs": [
        {
          "indexed": true,
          "internalType": "address",
          "name": "from",
          "type": "address"
        },
        {
          "indexed": true,
          "internalType": "address",
          "name": "to",
          "type": "address"
        },
        {
          "indexed": false,
          "internalType": "uint256",
          "name": "value",
          "type": "uint256"
        }
      ],
      "name": "Transfer",
      "type": "event"
    },
    {
      "stateMutability": "payable",
      "type": "fallback"
    },
    {
      "inputs": [
        {
          "internalType": "address",
          "name": "owner",
          "type": "address"
        },
        {
          "internalType": "address",
          "name": "spender",
          "type": "address"
        }
      ],
      "name": "allowance",
      "outputs": [
        {
          "internalType": "uint256",
          "name": "",
          "type": "uint256"
        }
      ],
      "stateMutability": "view",
      "type": "function"
    },
    {
      "inputs": [
        {
          "internalType": "address",
          "name": "spender",
          "type": "address"
        },
        {
          "internalType": "uint256",
          "name": "value",
          "type": "uint256"
        }
      ],
      "name": "approve",
      "outputs": [
        {
          "internalType": "bool",
          "name": "",
          "type": "bool"
        }
      ],
      "stateMutability": "nonpayable",
      "type": "function"
    },
    {
      "inputs": [
        {
          "internalType": "address",
          "name": "account",
          "type": "address"
        }
      ],
      "name": "balanceOf",
      "outputs": [
        {
          "internalType": "uint256",
          "name": "",
          "type": "uint256"
        }
      ],
      "stateMutability": "view",
      "type": "function"
    },
    {
      "inputs": [
        {
          "internalType": "uint256",
          "name": "_nftTokenId",
          "type": "uint256"
        }
      ],
      "name": "createPoposal",
      "outputs": [
        {
          "internalType": "uint256",
          "name": "",
          "type": "uint256"
        }
      ],
      "stateMutability": "nonpayable",
      "type": "function"
    },
    {
      "inputs": [],
      "name": "decimals",
      "outputs": [
        {
          "internalType": "uint8",
          "name": "",
          "type": "uint8"
        }
      ],
      "stateMutability": "view",
      "type": "function"
    },
    {
      "inputs": [
        {
          "internalType": "uint256",
          "name": "proposalId",
          "type": "uint256"
        }
      ],
      "name": "executeProposal",
      "outputs": [],
      "stateMutability": "nonpayable",
      "type": "function"
    },
    {
      "inputs": [],
      "name": "name",
      "outputs": [
        {
          "internalType": "string",
          "name": "",
          "type": "string"
        }
      ],
      "stateMutability": "view",
      "type": "function"
    },
    {
      "inputs": [],
      "name": "numProposals",
      "outputs": [
        {
          "internalType": "uint256",
          "name": "",
          "type": "uint256"
        }
      ],
      "stateMutability": "view",
      "type": "function"
    },
    {
      "inputs": [],
      "name": "owner",
      "outputs": [
        {
          "internalType": "address",
          "name": "",
          "type": "address"
        }
      ],
      "stateMutability": "view",
      "type": "function"
    },
    {
      "inputs": [
        {
          "internalType": "uint256",
          "name": "",
          "type": "uint256"
        }
      ],
      "name": "proposals",
      "outputs": [
        {
          "internalType": "uint256",
          "name": "nftTokenId",
          "type": "uint256"
        },
        {
          "internalType": "uint256",
          "name": "deadline",
          "type": "uint256"
        },
        {
          "internalType": "uint256",
          "name": "yayVotes",
          "type": "uint256"
        },
        {
          "internalType": "uint256",
          "name": "nayVotes",
          "type": "uint256"
        },
        {
          "internalType": "bool",
          "name": "executed",
          "type": "bool"
        }
      ],
      "stateMutability": "view",
      "type": "function"
    },
    {
      "inputs": [],
      "name": "renounceOwnership",
      "outputs": [],
      "stateMutability": "nonpayable",
      "type": "function"
    },
    {
      "inputs": [],
      "name": "symbol",
      "outputs": [
        {
          "internalType": "string",
          "name": "",
          "type": "string"
        }
      ],
      "stateMutability": "view",
      "type": "function"
    },
    {
      "inputs": [],
      "name": "totalSupply",
      "outputs": [
        {
          "internalType": "uint256",
          "name": "",
          "type": "uint256"
        }
      ],
      "stateMutability": "view",
      "type": "function"
    },
    {
      "inputs": [
        {
          "internalType": "address",
          "name": "to",
          "type": "address"
        },
        {
          "internalType": "uint256",
          "name": "value",
          "type": "uint256"
        }
      ],
      "name": "transfer",
      "outputs": [
        {
          "internalType": "bool",
          "name": "",
          "type": "bool"
        }
      ],
      "stateMutability": "nonpayable",
      "type": "function"
    },
    {
      "inputs": [
        {
          "internalType": "address",
          "name": "from",
          "type": "address"
        },
        {
          "internalType": "address",
          "name": "to",
          "type": "address"
        },
        {
          "internalType": "uint256",
          "name": "value",
          "type": "uint256"
        }
      ],
      "name": "transferFrom",
      "outputs": [
        {
          "internalType": "bool",
          "name": "",
          "type": "bool"
        }
      ],
      "stateMutability": "nonpayable",
      "type": "function"
    },
    {
      "inputs": [
        {
          "internalType": "address",
          "name": "newOwner",
          "type": "address"
        }
      ],
      "name": "transferOwnership",
      "outputs": [],
      "stateMutability": "nonpayable",
      "type": "function"
    },
    {
      "inputs": [
        {
          "internalType": "uint256",
          "name": "proposalId",
          "type": "uint256"
        },
        {
          "internalType": "enum DAO.Vote",
          "name": "vote",
          "type": "uint8"
        }
      ],
      "name": "voteOnProposal",
      "outputs": [],
      "stateMutability": "nonpayable",
      "type": "function"
    },
    {
      "inputs": [],
      "name": "withdrawEther",
      "outputs": [],
      "stateMutability": "nonpayable",
      "type": "function"
    },
    {
      "stateMutability": "payable",
      "type": "receive"
    }
  ],
  "bytecode": "0x608060405260405162002d5138038062002d51833981810160405281019062000029919062000602565b336040518060400160405280600981526020017f44414f20546f6b656e00000000000000000000000000000000000000000000008152506040518060400160405280600381526020017f44414f00000000000000000000000000000000000000000000000000000000008152508160039081620000a79190620008c3565b508060049081620000b99190620008c3565b505050600073ffffffffffffffffffffffffffffffffffffffff168173ffffffffffffffffffffffffffffffffffffffff1603620001315760006040517f1e4fbdf7000000000000000000000000000000000000000000000000000000008152600401620001289190620009bb565b60405180910390fd5b62000142816200020c60201b60201c565b50620001823362000158620002d260201b60201c565b600a62000166919062000b68565b620f424062000176919062000bb9565b620002db60201b60201c565b81600860006101000a81548173ffffffffffffffffffffffffffffffffffffffff021916908373ffffffffffffffffffffffffffffffffffffffff16021790555080600960006101000a81548173ffffffffffffffffffffffffffffffffffffffff021916908373ffffffffffffffffffffffffffffffffffffffff160217905550505062000caa565b6000600560009054906101000a900473ffffffffffffffffffffffffffffffffffffffff16905081600560006101000a81548173ffffffffffffffffffffffffffffffffffffffff021916908373ffffffffffffffffffffffffffffffffffffffff1602179055508173ffffffffffffffffffffffffffffffffffffffff168173ffffffffffffffffffffffffffffffffffffffff167f8be0079c531659141344cd1fd0a4f28419497f9722a3daafe3b4186f6b6457e060405160405180910390a35050565b60006012905090565b600073ffffffffffffffffffffffffffffffffffffffff168273ffffffffffffffffffffffffffffffffffffffff1603620003505760006040517fec442f05000000000000000000000000000000000000000000000000000000008152600401620003479190620009bb565b60405180910390fd5b62000364600083836200036860201b60201c565b5050565b600073ffffffffffffffffffffffffffffffffffffffff168373ffffffffffffffffffffffffffffffffffffffff1603620003be578060026000828254620003b1919062000c04565b9250508190555062000494565b60008060008573ffffffffffffffffffffffffffffffffffffffff1673ffffffffffffffffffffffffffffffffffffffff168152602001908152602001600020549050818110156200044d578381836040517fe450d38c000000000000000000000000000000000000000000000000000000008152600401620004449392919062000c50565b60405180910390fd5b8181036000808673ffffffffffffffffffffffffffffffffffffffff1673ffffffffffffffffffffffffffffffffffffffff16815260200190815260200160002081905550505b600073ffffffffffffffffffffffffffffffffffffffff168273ffffffffffffffffffffffffffffffffffffffff1603620004df57806002600082825403925050819055506200052c565b806000808473ffffffffffffffffffffffffffffffffffffffff1673ffffffffffffffffffffffffffffffffffffffff168152602001908152602001600020600082825401925050819055505b8173ffffffffffffffffffffffffffffffffffffffff168373ffffffffffffffffffffffffffffffffffffffff167fddf252ad1be2c89b69c2b068fc378daa952ba7f163c4a11628f55a4df523b3ef836040516200058b919062000c8d565b60405180910390a3505050565b600080fd5b600073ffffffffffffffffffffffffffffffffffffffff82169050919050565b6000620005ca826200059d565b9050919050565b620005dc81620005bd565b8114620005e857600080fd5b50565b600081519050620005fc81620005d1565b92915050565b600080604083850312156200061c576200061b62000598565b5b60006200062c85828601620005eb565b92505060206200063f85828601620005eb565b9150509250929050565b600081519050919050565b7f4e487b7100000000000000000000000000000000000000000000000000000000600052604160045260246000fd5b7f4e487b7100000000000000000000000000000000000000000000000000000000600052602260045260246000fd5b60006002820490506001821680620006cb57607f821691505b602082108103620006e157620006e062000683565b5b50919050565b60008190508160005260206000209050919050565b60006020601f8301049050919050565b600082821b905092915050565b6000600883026200074b7fffffffffffffffffffffffffffffffffffffffffffffffffffffffffffffffff826200070c565b6200075786836200070c565b95508019841693508086168417925050509392505050565b6000819050919050565b6000819050919050565b6000620007a46200079e62000798846200076f565b62000779565b6200076f565b9050919050565b6000819050919050565b620007c08362000783565b620007d8620007cf82620007ab565b84845462000719565b825550505050565b600090565b620007ef620007e0565b620007fc818484620007b5565b505050565b5b81811015620008245762000818600082620007e5565b60018101905062000802565b5050565b601f82111562000873576200083d81620006e7565b6200084884620006fc565b8101602085101562000858578190505b620008706200086785620006fc565b83018262000801565b50505b505050565b600082821c905092915050565b6000620008986000198460080262000878565b1980831691505092915050565b6000620008b3838362000885565b9150826002028217905092915050565b620008ce8262000649565b67ffffffffffffffff811115620008ea57620008e962000654565b5b620008f68254620006b2565b6200090382828562000828565b600060209050601f8311600181146200093b576000841562000926578287015190505b620009328582620008a5565b865550620009a2565b601f1984166200094b86620006e7565b60005b8281101562000975578489015182556001820191506020850194506020810190506200094e565b8683101562000995578489015162000991601f89168262000885565b8355505b6001600288020188555050505b505050505050565b620009b581620005bd565b82525050565b6000602082019050620009d26000830184620009aa565b92915050565b7f4e487b7100000000000000000000000000000000000000000000000000000000600052601160045260246000fd5b60008160011c9050919050565b6000808291508390505b600185111562000a665780860481111562000a3e5762000a3d620009d8565b5b600185161562000a4e5780820291505b808102905062000a5e8562000a07565b945062000a1e565b94509492505050565b60008262000a81576001905062000b54565b8162000a91576000905062000b54565b816001811462000aaa576002811462000ab55762000aeb565b600191505062000b54565b60ff84111562000aca5762000ac9620009d8565b5b8360020a91508482111562000ae45762000ae3620009d8565b5b5062000b54565b5060208310610133831016604e8410600b841016171562000b255782820a90508381111562000b1f5762000b1e620009d8565b5b62000b54565b62000b34848484600162000a14565b9250905081840481111562000b4e5762000b4d620009d8565b5b81810290505b9392505050565b600060ff82169050919050565b600062000b75826200076f565b915062000b828362000b5b565b925062000bb17fffffffffffffffffffffffffffffffffffffffffffffffffffffffffffffffff848462000a6f565b905092915050565b600062000bc6826200076f565b915062000bd3836200076f565b925082820262000be3816200076f565b9150828204841483151762000bfd5762000bfc620009d8565b5b5092915050565b600062000c11826200076f565b915062000c1e836200076f565b925082820190508082111562000c395762000c38620009d8565b5b92915050565b62000c4a816200076f565b82525050565b600060608201905062000c676000830186620009aa565b62000c76602083018562000c3f565b62000c85604083018462000c3f565b949350505050565b600060208201905062000ca4600083018462000c3f565b92915050565b6120978062000cba6000396000f3fe60806040526004361061010d5760003560e01c806370a082311161009557806395d89b411161006457806395d89b4114610379578063a9059cbb146103a4578063dd62ed3e146103e1578063efafb22e1461041e578063f2fde38b1461044757610114565b806370a08231146102e3578063715018a6146103205780637362377b146103375780638da5cb5b1461034e57610114565b806318160ddd116100dc57806318160ddd146101e857806323b872dd14610213578063313ce56714610250578063400e39491461027b57806350438e5a146102a657610114565b8063013cf08b1461011657806306fdde0314610157578063095ea7b3146101825780630d61b519146101bf57610114565b3661011457005b005b34801561012257600080fd5b5061013d60048036038101906101389190611702565b610470565b60405161014e959493929190611759565b60405180910390f35b34801561016357600080fd5b5061016c6104b3565b604051610179919061183c565b60405180910390f35b34801561018e57600080fd5b506101a960048036038101906101a491906118bc565b610545565b6040516101b691906118fc565b60405180910390f35b3480156101cb57600080fd5b506101e660048036038101906101e19190611702565b610568565b005b3480156101f457600080fd5b506101fd610826565b60405161020a9190611917565b60405180910390f35b34801561021f57600080fd5b5061023a60048036038101906102359190611932565b610830565b60405161024791906118fc565b60405180910390f35b34801561025c57600080fd5b5061026561085f565b60405161027291906119a1565b60405180910390f35b34801561028757600080fd5b50610290610868565b60405161029d9190611917565b60405180910390f35b3480156102b257600080fd5b506102cd60048036038101906102c89190611702565b61086e565b6040516102da9190611917565b60405180910390f35b3480156102ef57600080fd5b5061030a600480360381019061030591906119bc565b6109fc565b6040516103179190611917565b60405180910390f35b34801561032c57600080fd5b50610335610a44565b005b34801561034357600080fd5b5061034c610a58565b005b34801561035a57600080fd5b50610363610ab0565b60405161037091906119f8565b60405180910390f35b34801561038557600080fd5b5061038e610ada565b60405161039b919061183c565b60405180910390f35b3480156103b057600080fd5b506103cb60048036038101906103c691906118bc565b610b6c565b6040516103d891906118fc565b60405180910390f35b3480156103ed57600080fd5b5061040860048036038101906104039190611a13565b610b8f565b6040516104159190611917565b60405180910390f35b34801561042a57600080fd5b5061044560048036038101906104409190611a78565b610c16565b005b34801561045357600080fd5b5061046e600480360381019061046991906119bc565b610f56565b005b60066020528060005260406000206000915090508060000154908060010154908060020154908060030154908060040160009054906101000a900460ff16905085565b6060600380546104c290611ae7565b80601f01602080910402602001604051908101604052809291908181526020018280546104ee90611ae7565b801561053b5780601f106105105761010080835404028352916020019161053b565b820191906000526020600020905b81548152906001019060200180831161051e57829003601f168201915b5050505050905090565b600080610550610fdc565b905061055d818585610fe4565b600191505092915050565b6000610573336109fc565b116105b3576040517f08c379a00000000000000000000000000000000000000000000000000000000081526004016105aa90611b8a565b60405180910390fd5b80426006600083815260200190815260200160002060010154111561060d576040517f08c379a000000000000000000000000000000000000000000000000000000000815260040161060490611c1c565b60405180910390fd5b6006600082815260200190815260200160002060040160009054906101000a900460ff1615610671576040517f08c379a000000000000000000000000000000000000000000000000000000000815260040161066890611c88565b60405180910390fd5b6000600660008481526020019081526020016000209050806003015481600201541115610804576000600860009054906101000a900473ffffffffffffffffffffffffffffffffffffffff1673ffffffffffffffffffffffffffffffffffffffff166398d5fdca6040518163ffffffff1660e01b8152600401602060405180830381865afa158015610707573d6000803e3d6000fd5b505050506040513d601f19601f8201168201806040525081019061072b9190611cbd565b905080471015610770576040517f08c379a000000000000000000000000000000000000000000000000000000000815260040161076790611d36565b60405180910390fd5b600860009054906101000a900473ffffffffffffffffffffffffffffffffffffffff1673ffffffffffffffffffffffffffffffffffffffff1663efef39a18284600001546040518363ffffffff1660e01b81526004016107d09190611917565b6000604051808303818588803b1580156107e957600080fd5b505af11580156107fd573d6000803e3d6000fd5b5050505050505b60018160040160006101000a81548160ff021916908315150217905550505050565b6000600254905090565b60008061083b610fdc565b9050610848858285610ff6565b61085385858561108a565b60019150509392505050565b60006012905090565b60075481565b60008061087a336109fc565b116108ba576040517f08c379a00000000000000000000000000000000000000000000000000000000081526004016108b190611b8a565b60405180910390fd5b600860009054906101000a900473ffffffffffffffffffffffffffffffffffffffff1673ffffffffffffffffffffffffffffffffffffffff166396e494e8836040518263ffffffff1660e01b81526004016109159190611917565b602060405180830381865afa158015610932573d6000803e3d6000fd5b505050506040513d601f19601f820116820180604052508101906109569190611d82565b610995576040517f08c379a000000000000000000000000000000000000000000000000000000000815260040161098c90611dfb565b60405180910390fd5b6000600660006007548152602001908152602001600020905082816000018190555061012c426109c59190611e4a565b8160010181905550600760008154809291906109e090611e7e565b919050555060016007546109f49190611ec6565b915050919050565b60008060008373ffffffffffffffffffffffffffffffffffffffff1673ffffffffffffffffffffffffffffffffffffffff168152602001908152602001600020549050919050565b610a4c61117e565b610a566000611205565b565b610a6061117e565b610a68610ab0565b73ffffffffffffffffffffffffffffffffffffffff166108fc479081150290604051600060405180830381858888f19350505050158015610aad573d6000803e3d6000fd5b50565b6000600560009054906101000a900473ffffffffffffffffffffffffffffffffffffffff16905090565b606060048054610ae990611ae7565b80601f0160208091040260200160405190810160405280929190818152602001828054610b1590611ae7565b8015610b625780601f10610b3757610100808354040283529160200191610b62565b820191906000526020600020905b815481529060010190602001808311610b4557829003601f168201915b5050505050905090565b600080610b77610fdc565b9050610b8481858561108a565b600191505092915050565b6000600160008473ffffffffffffffffffffffffffffffffffffffff1673ffffffffffffffffffffffffffffffffffffffff16815260200190815260200160002060008373ffffffffffffffffffffffffffffffffffffffff1673ffffffffffffffffffffffffffffffffffffffff16815260200190815260200160002054905092915050565b6000610c21336109fc565b11610c61576040517f08c379a0000000000000000000000000000000000000000000000000000000008152600401610c5890611b8a565b60405180910390fd5b8142600660008381526020019081526020016000206001015411610cba576040517f08c379a0000000000000000000000000000000000000000000000000000000008152600401610cb190611f46565b60405180910390fd5b60006006600085815260200190815260200160002090506000600960009054906101000a900473ffffffffffffffffffffffffffffffffffffffff1673ffffffffffffffffffffffffffffffffffffffff166370a08231336040518263ffffffff1660e01b8152600401610d2e91906119f8565b602060405180830381865afa158015610d4b573d6000803e3d6000fd5b505050506040513d601f19601f82011682018060405250810190610d6f9190611cbd565b9050600080600090505b82811015610ea2576000600960009054906101000a900473ffffffffffffffffffffffffffffffffffffffff1673ffffffffffffffffffffffffffffffffffffffff16632f745c5933846040518363ffffffff1660e01b8152600401610de0929190611f66565b602060405180830381865afa158015610dfd573d6000803e3d6000fd5b505050506040513d601f19601f82011682018060405250810190610e219190611cbd565b90506000151585600501600083815260200190815260200160002060009054906101000a900460ff16151503610e8e578280610e5c90611e7e565b935050600185600501600083815260200190815260200160002060006101000a81548160ff0219169083151502179055505b508080610e9a90611e7e565b915050610d79565b5060008111610ee6576040517f08c379a0000000000000000000000000000000000000000000000000000000008152600401610edd90611fdb565b60405180910390fd5b60006001811115610efa57610ef9611ffb565b5b856001811115610f0d57610f0c611ffb565b5b03610f325780836002016000828254610f269190611e4a565b92505081905550610f4e565b80836003016000828254610f469190611e4a565b925050819055505b505050505050565b610f5e61117e565b600073ffffffffffffffffffffffffffffffffffffffff168173ffffffffffffffffffffffffffffffffffffffff1603610fd05760006040517f1e4fbdf7000000000000000000000000000000000000000000000000000000008152600401610fc791906119f8565b60405180910390fd5b610fd981611205565b50565b600033905090565b610ff183838360016112cb565b505050565b60006110028484610b8f565b90507fffffffffffffffffffffffffffffffffffffffffffffffffffffffffffffffff81146110845781811015611074578281836040517ffb8f41b200000000000000000000000000000000000000000000000000000000815260040161106b9392919061202a565b60405180910390fd5b611083848484840360006112cb565b5b50505050565b600073ffffffffffffffffffffffffffffffffffffffff168373ffffffffffffffffffffffffffffffffffffffff16036110fc5760006040517f96c6fd1e0000000000000000000000000000000000000000000000000000000081526004016110f391906119f8565b60405180910390fd5b600073ffffffffffffffffffffffffffffffffffffffff168273ffffffffffffffffffffffffffffffffffffffff160361116e5760006040517fec442f0500000000000000000000000000000000000000000000000000000000815260040161116591906119f8565b60405180910390fd5b6111798383836114a2565b505050565b611186610fdc565b73ffffffffffffffffffffffffffffffffffffffff166111a4610ab0565b73ffffffffffffffffffffffffffffffffffffffff1614611203576111c7610fdc565b6040517f118cdaa70000000000000000000000000000000000000000000000000000000081526004016111fa91906119f8565b60405180910390fd5b565b6000600560009054906101000a900473ffffffffffffffffffffffffffffffffffffffff16905081600560006101000a81548173ffffffffffffffffffffffffffffffffffffffff021916908373ffffffffffffffffffffffffffffffffffffffff1602179055508173ffffffffffffffffffffffffffffffffffffffff168173ffffffffffffffffffffffffffffffffffffffff167f8be0079c531659141344cd1fd0a4f28419497f9722a3daafe3b4186f6b6457e060405160405180910390a35050565b600073ffffffffffffffffffffffffffffffffffffffff168473ffffffffffffffffffffffffffffffffffffffff160361133d5760006040517fe602df0500000000000000000000000000000000000000000000000000000000815260040161133491906119f8565b60405180910390fd5b600073ffffffffffffffffffffffffffffffffffffffff168373ffffffffffffffffffffffffffffffffffffffff16036113af5760006040517f94280d620000000000000000000000000000000000000000000000000000000081526004016113a691906119f8565b60405180910390fd5b81600160008673ffffffffffffffffffffffffffffffffffffffff1673ffffffffffffffffffffffffffffffffffffffff16815260200190815260200160002060008573ffffffffffffffffffffffffffffffffffffffff1673ffffffffffffffffffffffffffffffffffffffff16815260200190815260200160002081905550801561149c578273ffffffffffffffffffffffffffffffffffffffff168473ffffffffffffffffffffffffffffffffffffffff167f8c5be1e5ebec7d5bd14f71427d1e84f3dd0314c0f7b2291e5b200ac8c7c3b925846040516114939190611917565b60405180910390a35b50505050565b600073ffffffffffffffffffffffffffffffffffffffff168373ffffffffffffffffffffffffffffffffffffffff16036114f45780600260008282546114e89190611e4a565b925050819055506115c7565b60008060008573ffffffffffffffffffffffffffffffffffffffff1673ffffffffffffffffffffffffffffffffffffffff16815260200190815260200160002054905081811015611580578381836040517fe450d38c0000000000000000000000000000000000000000000000000000000081526004016115779392919061202a565b60405180910390fd5b8181036000808673ffffffffffffffffffffffffffffffffffffffff1673ffffffffffffffffffffffffffffffffffffffff16815260200190815260200160002081905550505b600073ffffffffffffffffffffffffffffffffffffffff168273ffffffffffffffffffffffffffffffffffffffff1603611610578060026000828254039250508190555061165d565b806000808473ffffffffffffffffffffffffffffffffffffffff1673ffffffffffffffffffffffffffffffffffffffff168152602001908152602001600020600082825401925050819055505b8173ffffffffffffffffffffffffffffffffffffffff168373ffffffffffffffffffffffffffffffffffffffff167fddf252ad1be2c89b69c2b068fc378daa952ba7f163c4a11628f55a4df523b3ef836040516116ba9190611917565b60405180910390a3505050565b600080fd5b6000819050919050565b6116df816116cc565b81146116ea57600080fd5b50565b6000813590506116fc816116d6565b92915050565b600060208284031215611718576117176116c7565b5b6000611726848285016116ed565b91505092915050565b611738816116cc565b82525050565b60008115159050919050565b6117538161173e565b82525050565b600060a08201905061176e600083018861172f565b61177b602083018761172f565b611788604083018661172f565b611795606083018561172f565b6117a2608083018461174a565b9695505050505050565b600081519050919050565b600082825260208201905092915050565b60005b838110156117e65780820151818401526020810190506117cb565b60008484015250505050565b6000601f19601f8301169050919050565b600061180e826117ac565b61181881856117b7565b93506118288185602086016117c8565b611831816117f2565b840191505092915050565b600060208201905081810360008301526118568184611803565b905092915050565b600073ffffffffffffffffffffffffffffffffffffffff82169050919050565b60006118898261185e565b9050919050565b6118998161187e565b81146118a457600080fd5b50565b6000813590506118b681611890565b92915050565b600080604083850312156118d3576118d26116c7565b5b60006118e1858286016118a7565b92505060206118f2858286016116ed565b9150509250929050565b6000602082019050611911600083018461174a565b92915050565b600060208201905061192c600083018461172f565b92915050565b60008060006060848603121561194b5761194a6116c7565b5b6000611959868287016118a7565b935050602061196a868287016118a7565b925050604061197b868287016116ed565b9150509250925092565b600060ff82169050919050565b61199b81611985565b82525050565b60006020820190506119b66000830184611992565b92915050565b6000602082840312156119d2576119d16116c7565b5b60006119e0848285016118a7565b91505092915050565b6119f28161187e565b82525050565b6000602082019050611a0d60008301846119e9565b92915050565b60008060408385031215611a2a57611a296116c7565b5b6000611a38858286016118a7565b9250506020611a49858286016118a7565b9150509250929050565b60028110611a6057600080fd5b50565b600081359050611a7281611a53565b92915050565b60008060408385031215611a8f57611a8e6116c7565b5b6000611a9d858286016116ed565b9250506020611aae85828601611a63565b9150509250929050565b7f4e487b7100000000000000000000000000000000000000000000000000000000600052602260045260246000fd5b60006002820490506001821680611aff57607f821691505b602082108103611b1257611b11611ab8565b5b50919050565b7f4f6e6c792044414f206d656d626572732063616e20657865637574652074686960008201527f7300000000000000000000000000000000000000000000000000000000000000602082015250565b6000611b746021836117b7565b9150611b7f82611b18565b604082019050919050565b60006020820190508181036000830152611ba381611b67565b9050919050565b7f4163746976652070726f706f73616c2063616e7420657865637574652077686960008201527f6c65206163746976650000000000000000000000000000000000000000000000602082015250565b6000611c066029836117b7565b9150611c1182611baa565b604082019050919050565b60006020820190508181036000830152611c3581611bf9565b9050919050565b7f50726f706f73616c20616c726561647579206578656375746564000000000000600082015250565b6000611c72601a836117b7565b9150611c7d82611c3c565b602082019050919050565b60006020820190508181036000830152611ca181611c65565b9050919050565b600081519050611cb7816116d6565b92915050565b600060208284031215611cd357611cd26116c7565b5b6000611ce184828501611ca8565b91505092915050565b7f4e6f20456e6f7567682066756e64730000000000000000000000000000000000600082015250565b6000611d20600f836117b7565b9150611d2b82611cea565b602082019050919050565b60006020820190508181036000830152611d4f81611d13565b9050919050565b611d5f8161173e565b8114611d6a57600080fd5b50565b600081519050611d7c81611d56565b92915050565b600060208284031215611d9857611d976116c7565b5b6000611da684828501611d6d565b91505092915050565b7f4e4654206e6f7420666f722073616c6500000000000000000000000000000000600082015250565b6000611de56010836117b7565b9150611df082611daf565b602082019050919050565b60006020820190508181036000830152611e1481611dd8565b9050919050565b7f4e487b7100000000000000000000000000000000000000000000000000000000600052601160045260246000fd5b6000611e55826116cc565b9150611e60836116cc565b9250828201905080821115611e7857611e77611e1b565b5b92915050565b6000611e89826116cc565b91507fffffffffffffffffffffffffffffffffffffffffffffffffffffffffffffffff8203611ebb57611eba611e1b565b5b600182019050919050565b6000611ed1826116cc565b9150611edc836116cc565b9250828203905081811115611ef457611ef3611e1b565b5b92915050565b7f496e6163746976652070726f706f73616c000000000000000000000000000000600082015250565b6000611f306011836117b7565b9150611f3b82611efa565b602082019050919050565b60006020820190508181036000830152611f5f81611f23565b9050919050565b6000604082019050611f7b60008301856119e9565b611f88602083018461172f565b9392505050565b7f416c726561647920566f74656400000000000000000000000000000000000000600082015250565b6000611fc5600d836117b7565b9150611fd082611f8f565b602082019050919050565b60006020820190508181036000830152611ff481611fb8565b9050919050565b7f4e487b7100000000000000000000000000000000000000000000000000000000600052602160045260246000fd5b600060608201905061203f60008301866119e9565b61204c602083018561172f565b612059604083018461172f565b94935050505056fea2646970667358221220190d9360dbc174e69baa4a90bd4cc35f603c907394d2f4703b2c119351ae2b0064736f6c63430008140033",
  "linkReferences": {},
  "deployedLinkReferences": {}
}