{
  "_format": "hh-sol-artifact-1",
  "contractName": "FakeNFTMarketplace",
  "sourceName": "contracts/FakeNFTMarketplace.sol",
  "abi": [
    {
      "inputs": [
        {
          "internalType": "uint256",
          "name": "_tokenId",
          "type": "uint256"
        }
      ],
      "name": "available",
      "outputs": [
        {
          "internalType": "bool",
          "name": "",
          "type": "bool"
        }
      ],
      "stateMutability": "view",
      "type": "function"
    },
    {
      "inputs": [],
      "name": "getPrice",
      "outputs": [
        {
          "internalType": "uint256",
          "name": "",
          "type": "uint256"
        }
      ],
      "stateMutability": "view",
      "type": "function"
    },
    {
      "inputs": [
        {
          "internalType": "uint256",
          "name": "_tokenID",
          "type": "uint256"
        }
      ],
      "name": "purchase",
      "outputs": [],
      "stateMutability": "payable",
      "type": "function"
    },
    {
      "inputs": [
        {
          "internalType": "uint256",
          "name": "",
          "type": "uint256"
        }
      ],
      "name": "tokens",
      "outputs": [
        {
          "internalType": "address",
          "name": "",
          "type": "address"
        }
      ],
      "stateMutability": "view",
      "type": "function"
    }
  ],
  "bytecode": "0x6080604052662386f26fc1000060015534801561001b57600080fd5b506105398061002b6000396000f3fe60806040526004361061003f5760003560e01c80634f64b2be1461004457806396e494e81461008157806398d5fdca146100be578063efef39a1146100e9575b600080fd5b34801561005057600080fd5b5061006b60048036038101906100669190610331565b610105565b604051610078919061039f565b60405180910390f35b34801561008d57600080fd5b506100a860048036038101906100a39190610331565b610138565b6040516100b591906103d5565b60405180910390f35b3480156100ca57600080fd5b506100d36101b2565b6040516100e091906103ff565b60405180910390f35b61010360048036038101906100fe9190610331565b6101bc565b005b60006020528060005260406000206000915054906101000a900473ffffffffffffffffffffffffffffffffffffffff1681565b60008073ffffffffffffffffffffffffffffffffffffffff1660008084815260200190815260200160002060009054906101000a900473ffffffffffffffffffffffffffffffffffffffff1673ffffffffffffffffffffffffffffffffffffffff16036101a857600190506101ad565b600090505b919050565b6000600154905090565b600154341015610201576040517f08c379a00000000000000000000000000000000000000000000000000000000081526004016101f890610477565b60405180910390fd5b600073ffffffffffffffffffffffffffffffffffffffff1660008083815260200190815260200160002060009054906101000a900473ffffffffffffffffffffffffffffffffffffffff1673ffffffffffffffffffffffffffffffffffffffff16146102a2576040517f08c379a0000000000000000000000000000000000000000000000000000000008152600401610299906104e3565b60405180910390fd5b3360008083815260200190815260200160002060006101000a81548173ffffffffffffffffffffffffffffffffffffffff021916908373ffffffffffffffffffffffffffffffffffffffff16021790555050565b600080fd5b6000819050919050565b61030e816102fb565b811461031957600080fd5b50565b60008135905061032b81610305565b92915050565b600060208284031215610347576103466102f6565b5b60006103558482850161031c565b91505092915050565b600073ffffffffffffffffffffffffffffffffffffffff82169050919050565b60006103898261035e565b9050919050565b6103998161037e565b82525050565b60006020820190506103b46000830184610390565b92915050565b60008115159050919050565b6103cf816103ba565b82525050565b60006020820190506103ea60008301846103c6565b92915050565b6103f9816102fb565b82525050565b600060208201905061041460008301846103f0565b92915050565b600082825260208201905092915050565b7f4e4f545f454e4f5547485f455448000000000000000000000000000000000000600082015250565b6000610461600e8361041a565b915061046c8261042b565b602082019050919050565b6000602082019050818103600083015261049081610454565b9050919050565b7f546f6b656e206e6f7420617661696c6162650000000000000000000000000000600082015250565b60006104cd60128361041a565b91506104d882610497565b602082019050919050565b600060208201905081810360008301526104fc816104c0565b905091905056fea2646970667358221220bdf56a8dd1a5eecbcac3b2fad7f3bbbadaf94b8cbf2edd3d1c14bed407f6d59a64736f6c63430008140033",
  "linkReferences": {},
  "deployedLinkReferences": {}
}